:020000024000BC
:100000001C94F4001C9415011C9415011C941501FA
:100010001C9415011C9415011C9415011C941501C8
:100020001C9415011C9415011C9415011C941501B8
:100030001C9415011C9415011C9415011C941501A8
:100040001C9415011C9415011C9415011C94150198
:100050001C9415011C9415011C9415011C94150188
:100060001C9415011C9415011C9415011C94150178
:100070001C9415011C9415011C9415011C94150168
:100080001C949D031C94B2031C9415011C9415012F
:100090001C9415011C9415011C9415011C94150148
:1000A0001C9415011C9415011C9415011C94150138
:1000B0001C9415011C9415011C9415011C94150128
:1000C0001C9415011C9415011C9415011C94150118
:1000D0001C9415011C9415011C9415011C94150108
:1000E0001C9415011C9415011C9415011C941501F8
:1000F0001C9415011C9415011C9415011C941501E8
:100100001C9415011C9415011C9415011C941501D7
:100110001C9415011C9415011C9415011C941501C7
:100120001C9415011C9415011C9415011C941501B7
:100130001C9415011C9415011C9415011C941501A7
:100140001C9415011C9415011C9415011C94150197
:100150001C9415011C9415011C9415011C94150187
:100160001C9415011C9415011C9415011C94150177
:100170001C9415011C9415011C9415011C94150167
:100180001C9415011C9415011C9415011C94150157
:100190001C9415011C9415011C9415011C94150147
:1001A0001C9415011C9415011C9415011C94150137
:1001B0001C9415011C9415011C9415011C94150127
:1001C0001C9415011C9415011C9415011C94150117
:1001D0001C9415011C9415011C9415011C94150107
:1001E0001C9415011C94150111241FBECFEFDFE5EF
:1001F000DEBFCDBF02E00CBF10E2A0E0B0E2E2EA59
:10020000F9E004E00BBF02C007900D92A831B107DE
:10021000D9F710E2A8E1B0E201C01D92A93AB107F6
:10022000E1F71E9452011C94CF041C9400004F93DC
:100230000F921F92FF93EF930B0143E2FC01409357
:10024000CA014DE940933400E8954091CF0147FD44
:10025000FCCF44274093CA01EF91FF911F900F906C
:100260004F9108954F933F932F93FF93EF933BB795
:100270008BBFFB0141E0409348002CE045E24093F6
:10028000CA014DE940933400E8952093CD0188954B
:100290002227209348003BBFEF91FF912F913F9180
:1002A0004F9108951E944D041E945B011E946D01A0
:1002B00081E090E008951E948E02882339F084E056
:1002C00090E060E070E21E94000308951E940F0316
:1002D0001CBEE0E0F0E0199508956F927F928F9236
:1002E0009F92AF92BF92CF92DF92EF92FF920F93C5
:1002F0001F93DF93CF930F920F92CDB7DEB742E2F9
:10030000642E40E2742E4E010894811C911C32E050
:10031000A32EB12CAC0EBD1E82E290E261E01E94D1
:10032000E402809122208335B9F710922220F30154
:10033000818382E290E261E01E94E40280912220B7
:1003400090912320F3E583339F0749F103E584333C
:10035000900748F413E58033910708F4B6C0825340
:100360009345D0F016C063E587339607C1F0E3E507
:1003700088339E0728F48553934509F0A6C00CC026
:1003800003E58833900729F08953934509F09DC010
:1003900003C023E0D22E05C092E0D92E02C084E033
:1003A000D82EC40161E01E94E402C9802C2D30E0F7
:1003B0008D2D90E08F579F4F821793070CF485C0C7
:1003C0008C2D81508D198093A820FD2CEE24FA9459
:1003D0000F2D10E00C5D1F4DC80161E01E94E4027A
:1003E000F8018081E80EFF2091F7FE2CFC0C89813A
:1003F0008D19898308E210E208C0C80161E01E94EB
:10040000E402F80181918F01F80E8981815089837E
:10041000882399F7C50161E01E94E4028A81F80EF1
:10042000FFEFFF1609F051C06FC003E58533900759
:1004300009F463C087539345039790F41E94C70350
:100440001E94980384E090E064E070E21E94000340
:100450001E940F031CBEE0912420F09125201995D5
:100460002091242030912520409126205091272052
:100470008091082090910920A0910A20B0910B2032
:1004800082179307A407B50709F437C02093082003
:100490003093092040930A2050930B208091A8208C
:1004A00079018A01E80EF11C011D111DD801C70157
:1004B00080509040A440B04018F41E94E6030AC057
:1004C000205030404148504028F484E090E06CE0F7
:1004D00070E217C08091242090912520A0912620C1
:1004E000B091272080509040A148B040805090416A
:1004F000A040B04010F41E943B0384E090E064E020
:1005000070E21E94000308CF809122209091232056
:1005100063E58033960709F088CFEFCF0F931F93E1
:10052000DF93CF9300D00F92CDB7DEB700E418E091
:100530008AE698E1F80186A397A311821E94A80485
:10054000F80110A211A281E0848785E08093400821
:100550008E010C5F1F4F1AC0C8011E948304282F00
:100560008823A1F089819A81AB81BC81823BF5EA25
:100570009F07F5E6AF07FBE4BF0769F0892F9A2FC5
:10058000AB2FBB2789839A83AB83BC8380914C08B4
:1005900080FFE2CF15C010921820E0E4F8E011824D
:1005A00010A211A214861092400816A217A2822F40
:1005B0002496CDBFDEBFCF91DF911F910F9108959B
:1005C0001E94770420E0E7CF1F93CF93DF93EC01D5
:1005D000162FE0911820F0E033E0EE0FFF1F3A9560
:1005E000E1F7EC5EFF4D0190F081E02DCE01199511
:1005F000882311F4112369F7DF91CF911F9108959A
:10060000E0911820F0E043E0EE0FFF1F4A95E1F77C
:10061000E05FFF4D0680F781E02D19950895E09188
:100620001820F0E053E0EE0FFF1F5A95E1F7EE5E61
:10063000FF4D0190F081E02D19951E9467040895F7
:1006400090E025E0880F991F2A95E1F7E0ECF1E0B2
:100650008083892F8F7181831282A8E4B0E091E0BA
:100660009C9385E3828788ED84BF938783E08587A9
:1006700088951C920895EF92FF920F931F93CF934A
:10068000DF938091242090912520A0912620B09185
:100690002720A070B0708093242090932520A093F1
:1006A0002620B0932720C8E2D0E237C0E090242073
:1006B000F0902520009126201091272035E01695F6
:1006C0000795F794E7943A95D1F7809119208E1504
:1006D00021F01E942003E0921920E0912420F09153
:1006E0002520E050F04F89918083809124209091C3
:1006F0002520A0912620B09127200196A11DB11D93
:100700008093242090932520A0932620B093272027
:100710008091A82081508093A8208091A8208823D0
:1007200029F6DF91CF911F910F91FF90EF900895DF
:10073000809119201E94200308951F920F920FB6E6
:100740000F920BB60F921124EF93FF93E0ECF1E0C0
:100750001586FF91EF910F900BBE0F900FBE0F907B
:100760001F9018951F920F920FB60F920BB60F9213
:100770001124EF93FF93E0ECF1E01586FF91EF91E8
:100780000F900BBE0F900FBE0F901F9018956091A9
:100790001A2070911B2080E090E039E0660F771FEF
:1007A000881F991F3A95D1F71E943201089580FF52
:1007B0000AC060931D2060911C2070911D2001973C
:1007C0001E941701089560931C200895EF92FF92E4
:1007D0000F931F93CF93DF939091A820E92FF0E020
:1007E00090FF07C0EE5DFF4D8FEF86839F5F909374
:1007F000A820C8E2D0E245C0E0902420F090252057
:10080000009126201091272059E016950795F7941E
:10081000E7945A95D1F760911A2070911B206E15BC
:100820007F0579F080E090E049E0660F771F881F30
:10083000991F4A95D1F71E943201E0921A20F09246
:100840001B206991809124209091252091701E9405
:10085000D7038091242090912520A0912620B0914B
:1008600027200196A11DB11D80932420909325205F
:10087000A0932620B09327208091A82081508093B8
:10088000A8208091A820882309F0B6CFDF91CF91CE
:100890001F910F91FF90EF90089582E08CBF80919F
:1008A000CC018860E0ECF1E08487A89588ED84BFF6
:1008B0008BE2809380008091820080FDFCCF88EDE8
:1008C00084BF84E4E0EAF0E082837894089598EDB0
:1008D00094BF81E080938000E0ECF1E08485877F25
:1008E000848794BFE0EAF0E01282F8940895E091E2
:1008F0001E20F0911F2015821482E0912020F0919B
:10090000212010820895DC01E0911E20F0911F202B
:10091000818187FD02C080E0089580818C9381E011
:1009200008959C01DB01A895E0911E20F0911F2005
:100930000BC08C918083818186FFFDCF11968181D0
:1009400080648183215030402115310591F708954D
:10095000A0EAB9E0A0931E20B0931F20E0E6F6E0E5
:10096000E0932020F093212088E08583818394E028
:1009700092838BE016968C93169780EF17968C9344
:10098000179714969C93149783E015968C9315975C
:1009900014968C911497886114968C930895F8940A
:0209A000FFCF87
:1009A20069D3D2264D5A9AB4FFFFFFFF2D595AB28E
:0809B200A804770483049104FA
:0400000340000000B9
:00000001FF
