:020000024000BC
:040000001C944E01FD
:080080001C94DE021C944703EE
:1001FC0053300141040216040201160402011804D2
:10020C0002011A040202160402021A040201180462
:10021C000201160402FB4F930F921F92FF93EF9370
:10022C00090143E2F8014093CA014DE940933400BF
:10023C00E8954091CF0147FDFCCF44274093CA017C
:10024C00EF91FF911F900F904F9108956F935F93D3
:10025C004F93FF93EF936BB72BBFF80141E04093A3
:10026C0048005CE045E24093CA014DE940933400FC
:10027C00E8955093CD0188955527509348006BBF56
:10028C00EF91FF914F915F916F9108951C941B0515
:10029C000FEF0DBF0FE50EBFC0E0DFE51E94D804D5
:1002AC00002311F01E94EA041E947A021E94D604C4
:1002BC001C944C01149F102D059F100D049F002DB4
:1002CC00110D0895000F111F4A95E2F70895169528
:1002DC0007954A95E2F70895779167915791479161
:1002EC00179011FA2790379007900CBE0895F7DFFE
:1002FC00041B10E003C0F2DF041B150B20E030E000
:10030C0005C0EADF041B150B260B370B28F110FC7C
:10031C0025C047910790E00FF11F0417100540E02E
:10032C0024073407C8F486F412FE05C0E00FF11F51
:10033C000791069002C006910024F101E01BF00920
:10034C000CB700400CBF1994E00FF11FE00FF11F28
:10035C002790379007900CBEF101199411F4C6F751
:10036C00E3CF319612FC31960EF0329650E060E0FD
:10037C0070E047914B3F48F079F34F3F29F04E3FE7
:10038C0011F07791679157914791041B150B260B30
:10039C00370B29F308F3E5CF4A92BA93AA939A93B1
:1003AC008A9308954C80BB81AA8199818881F0E061
:1003BC00EC0FFD1FEF01089582D066D01C945903F9
:1003CC001E94D301249791E00AE618E1E6E6F8E0E2
:1003DC000083118300E0009341089A95492F76D051
:1003EC00A0E0B0E2A00FB11FFD01008111812281BC
:1003FC004ED000E044D001E000934C0805E000939F
:10040C0040081EC08E010D5F1F4FFD0152D0199583
:10041C00802F0023A9F0088119812A813B81023B9E
:10042C0045EA140745E624074BE4340789F0012F0D
:10043C00122F232F30E0088319832A833B8380E01B
:10044C0000914C0800FBF6F6882311F4FD011CD03A
:10045C0090930C2000E000934108992319F0882315
:10046C0009F4BBCF0CD000934C0800934008E6E68F
:10047C0000830183082F2496E4E01C94D901E0E664
:10048C00F8E0008301830895038114812581F8012C
:10049C002CBF19941E94D301D801822F10D009D0EF
:1004AC008D01199521E0182F1227202F212BB1F344
:1004BC00E3CF468157816085FA016CBF0895409166
:1004CC000C2004D0F801E050F04E089550E00CE000
:1004DC0010E01C946001B801F2DF018412842384C3
:1004EC00F0012CBE8B0119941E944D031E944C04E8
:1004FC001E94940301E010E0089510E045E01E9472
:10050C006A010093C0011093C10100E00093C20185
:10051C0001E00093480005E30093CA0108ED04BF15
:10052C0001E00093CB0103E00093CD01889500E03E
:10053C000093480008951E94D301A8E2B0E2E2E2D1
:10054C00F0E220E02483258324C02AD045E01E94C9
:10055C006F01802F00911D20081719F0CEDF8093BA
:10056C001D204D91E2E2F0E20281F381E02FF05F79
:10057C00408316D0248135810F5F1F4F2F4F3F4F83
:10058C000283138324833583E8EAF0E200810A9521
:10059C0000830091A8200023C1F6E4E01C94D9014B
:1005AC00E2E2F0E202811381089500911D20A5CFB3
:1005BC000A9300E00093CD0109911895E0E2F0E276
:1005CC0000FB3EF4218320813181015010401C94AA
:1005DC0011012083089530E0212F102F00E0110F1E
:1005EC00221F331F1C942C011E94D301A8E2B0E2ED
:1005FC000091A82000FF32C00FEFE091A820F0E09E
:10060C00EE5DFF4D0683E8EAF0E20081039525C01C
:10061C00E2E2F0E203811481258126951795079576
:10062C00C8012AD00817190729F0D5DFEEE1F0E24E
:10063C00808391832D9119D01170C0DF16D0248145
:10064C0035810F5F1F4F2F4F3F4F0283138324833E
:10065C003583E8EAF0E200810A9500830091A82036
:10066C000023B1F6E4E01C94D901E2E2F0E202814D
:10067C001381089501D0AFCFEEE1F0E2008111813A
:10068C0008950A9300E00093CD0109911895ECECC4
:10069C00F1E000810860008308ED04BF04E40093DE
:1006AC00A2007894089508ED04BF01E00093800047
:1006BC00ECECF1E00081077F008308ED04BF00E063
:1006CC000093A200F8940895BA93AA93D801DAD0B3
:1006DC000D9111970335D9F7102F00E00D931C9352
:1006EC001197D0D0A991B99108951E94D201A02F41
:1006FC004424B0E00DC0AA9582E290E28A0F9B1FC1
:10070C0021E08C010E5F1F4FBFD0FC010281400E17
:10071C00AA2389F7042DE5E01C94D801BA93AA9377
:10072C00A2E2B0E211C01E94FA0264D00050104054
:10073C0021483040003010412040304010F41E94CD
:10074C00A10221E130E252D05BD0002309F44BC06E
:10075C000D911C911197003323E5120791F305338A
:10076C00120779F30733120731F00833120719F027
:10077C000933134581F41E9440031E94DB0221E1DE
:10078C0030E234D01E94E201FD010281F38120E0BD
:10079C00E02F2CBF19952ED0EDE0F0E24081518175
:1007AC0062817381401751076207730751F200830E
:1007BC00118322833383A801B9010091A82010E092
:1007CC000A011901000E111E211E311E01161106FF
:1007DC0004E02006310608F4A6CF403050406148B2
:1007EC00704008F0A2CF25E130E2ADCF04E010E07C
:1007FC001C947102FD0102811381248135810895BD
:10080C001E94D3012297A2E2B0E28D015DDF0D911F
:10081C001C911197ECEFF4E0FBBFF1E01C9481010B
:10082C0092E003C093E001C094E021E08E012CD053
:10083C00092F0F5718810117F0F0812F012F091B79
:10084C000A950093A820092F50DF800F0881091BFF
:10085C000883169603C017D00D91800F08810A9556
:10086C00088321E0C1F78E010F5F1F4F0DD0098166
:10087C00800F8F3F11F000E001C001E02296E4E010
:10088C001C94D90121E08D011C9450021E94E601A8
:10089C00002319F029E130E2A9CF1E94E2010C9457
:1008AC0000005B2F6A2FE9EAF0E20181085010E0AA
:1008BC0045E01E946A01005C194F02831383D80132
:1008CC0098012E5F3F4F0F5F1F4F1596408144FFDD
:1008DC0006C040E84C93D8014C9300E405C048E0B6
:1008EC004C93D8014C9304E0D9010C93DF01ED91AA
:1008FC00FC9100E0078309E10683DF01149604E014
:10090C000C9303E005830C9108610C93A62FB52F73
:10091C0008951B2F2A2FE9EAF0E2A081B18100E0B3
:10092C0015960C930E93A281B3810C93A22FB12F29
:10093C0008953B2F4A2FA9EAB0E2ED91FC91218159
:10094C0027FF05C02081F801208301E001C000E0F1
:10095C00A42FB32F08951E94D301C801F901A895B3
:10096C00A9EAB0E24D915C918A010F5F1F4F0AC05A
:10097C002191DA012C93D8012C9126FFFCCF2C91DC
:10098C0020642C939C010197232B91F7E4E01C9499
:10099C00D90100EA19E0E9EAF0E20083118381CF82
:1009AC001C944C0101E0089520E008D0E9F708956B
:1009BC003BBF27913BB702D0D9F708952D93015037
:1009CC001040202F212B089508E3402E0AE0502ED2
:1009DC0004E0602EF201362D6BBE07911691F201E8
:1009EC00EE5FFF4F3F4F3BBFA791B691F201362D03
:1009FC00EC5FFF4F3F4F3BBF479157916691242FC0
:100A0C00252B262B21F0FA01362FD2DF01C0CCDFAB
:100A1C0007E0400E00E0501E601E06E41AE024E0E1
:100A2C00401651066206B0F20895FFCF1D0000205B
:100A3C00460A0490001D20000000CF04028F04021F
:100A4C009F0402B1040200FFFFFFFF4D5A9AB42D20
:070A5C00595AB269D3D226FA
:0400000340000000B9
:00000001FF
