:020000021000EC
:10F8000011241FBECFEFD1E4DEBFCDBF12E0A0E0D8
:10F81000B2E0E8E6FFEF01E00BBF02C007900D92F7
:10F82000A831B107D9F722E0A8E1B2E001C01D92EA
:10F83000A53AB207E1F70E9409FD0E94A3FF0E94CA
:10F8400090FE81E090E008953BB740E10C9439FCD4
:10F850003BB70B0144270C9439FC3BB78BBFCB0162
:10F8600042E00C9439FC3BB78BBFCB0144E00C94D5
:10F8700039FCFC01416040935700E89511243BBFDF
:10F8800008959BB78BBFFB0186919BBF089580E0D5
:10F8900090E08093B2005091B6005B71E1F7019661
:10F8A0005091B2005456DAF30895869586958A955C
:10F8B0008823E9F70895CF92DF92EF92FF926C01CF
:10F8C000E12CF12CFE2CED2CDC2CCC24C701B60154
:10F8D0000E942DFC07B600FCFDCFC701B6010E94B7
:10F8E00033FC07B600FCFDCF0E9424FC07B600FCE9
:10F8F000FDCFFF90EF90DF90CF9008958F929F9271
:10F90000BF92CF92DF92EF92FF920F931F93CF930C
:10F91000DF938091A40280FF09C0E82FF0E0E25E4F
:10F92000FD4F9FEF96838F5F8093A4028091A40286
:10F93000882309F45BC0B12CC0E2D2E00F2EFAE1BB
:10F94000EF2EF2E0FF2EF02D0F2EFBE1CF2EF2E096
:10F95000DF2EF02D04EA12E088819981AA81BB8113
:10F96000892F9A2FAB2FBB274C01809118029091C1
:10F9700019028815990531F00E945BFC90921902DA
:10F980008092180288819981AA81BB81EB2DF0E0D9
:10F99000E25EFD4F2681AC01BD014170552766270F
:10F9A0007727452B81F0F601208360911A02709130
:10F9B0001B029927AA27BB2701970E9428FC07B69C
:10F9C00000FCFDCF02C0F701208388819981AA81C4
:10F9D000BB810196A11DB11D88839983AA83BB8336
:10F9E000B394F8018081B81608F4B6CFDF91CF91B7
:10F9F0001F910F91FF90EF90DF90CF90BF909F905D
:10FA00008F90089580911802909119020E945BFCDA
:10FA100008952F923F924F925F926F927F928F92B2
:10FA20009F92AF92BF92CF92DF92EF92FF920F938D
:10FA30001F93CF93DF93E6EBF0E0808180628083B9
:10FA400081E08093B100C8E8D3E188EC0E9455FCC6
:10FA50002197D9F78091660080931C0268949924BD
:10FA600097F8812C0F2EF1E9AF2EBB24B394F02D23
:10FA7000C6E6D0E0662463940F2EF1E9CF2EDD2494
:10FA8000D394E12CF12CF02D01E911E06894772456
:10FA900071F80E9447FC823921E09207E0F028814A
:10FAA0002150288300001501412C512CAC0160E04D
:10FAB00070E0415951406109710924163506460626
:10FAC00057061CF422E0821649F15C0121E9A21AD2
:10FAD00021E0B20A862C813921E09207C8F42881FE
:10FAE0002F5F288300001501412C512CB701A6017E
:10FAF000481B590B6109710924163506460657063D
:10FB00001CF421E0821651F05801A81AB90A872C7A
:10FB10008139914019F09A9409F0BBCF1092B1004D
:10FB200087B3876087BBDF91CF911F910F91FF90C3
:10FB3000EF90DF90CF90BF90AF909F908F907F908D
:10FB40006F905F904F903F902F90089580911C028E
:10FB50008093660008950F931F93CF93DF93E0E2A5
:10FB6000F2E080819181A281B381AA27BB278083A3
:10FB70009183A283B3838091A402882319F124E2A4
:10FB800032E0EF0104E0E4EAF2E0D9011D919D01C9
:10FB900088819981AA81BB81AC01BD014F5F5F4F14
:10FBA0006F4F7F4F488359836A837B8392BD81BDAA
:10FBB00010BD0FBBF99AF999FECF808181508083E7
:10FBC0008111E3CFDF91CF911F910F910895089597
:10FBD000569A579A5E985F98759A749A6D9A6C9A2D
:10FBE0006E9876986F98779814B8089556985E989E
:10FBF00057985F986D9875986C9874980895679960
:10FC000008C07598000023B1FC012083759A81E03B
:10FC1000089580E00895FB01A8952FEF24B900977F
:10FC200059F0860F971F6699FECF219125B97498D8
:10FC3000749AE817F907B9F714B80895E0911D020E
:10FC4000F0E0EE0FFF1FEE0FFF1FEE0FFF1FE05F54
:10FC5000FD4F0280F381E02D09950E94A6FD0895D5
:10FC60001F93CF93DF9300D000D0CDB7DEB712E063
:10FC700014BD84EB87BD0E94E8FD16BC15BB85E072
:10FC800085BD1AC0CE0104960E94FFFD8823A1F015
:10FC900049815A816B817C81423B95EA590795E6FF
:10FCA00069079BE4790769F0452F562F672F77275F
:10FCB00049835A836B837C83A99BE4CF0E94F6FD22
:10FCC00080E010921D0215BC14BC17BC16BC15BAFE
:10FCD0000F900F900F900F90DF91CF911F9108958B
:10FCE0001F93CF93DF93EC01162FE0911D02F0E0FC
:10FCF000EE0FFF1FEE0FFF1FEE0FFF1FE05FFD4F28
:10FD00000480F581E02DCE010995811102C0111109
:10FD1000ECCFDF91CF911F9108950E940BFE0895C3
:10FD20000F2EF0E2AF2EF2E0BF2EF02DC4EAD2E0AB
:10FD3000F12C6894CC24C2F80F2EF3E0DF2EF02DC6
:10FD40006894EE24E1F861E08EE192E00E9470FE9A
:10FD500080911E028335B9F70EE112E0D8011C92A2
:10FD600011968C9361E0C8010E9470FEF8018081B9
:10FD700091818333F3E59F07F1F048F4803313E575
:10FD8000910708F45BC08233934598F016C087331F
:10FD900033E5930781F028F48533934509F04EC08D
:10FDA00008C08833E3E59E0741F08933934509F0A5
:10FDB00045C09E2C03C09C2C01C09D2C61E0CE014F
:10FDC0000E9470FE8880282D30E0892D90E08F57AA
:10FDD0009F4F821793070CF4AFC0882D815089196B
:10FDE0008883992089F07F2C9A94892D90E08C014A
:10FDF000005E1D4F61E0C8010E9470FED8018C9129
:10FE0000780E9110F1CF01C07F2C870C9F2C092D0B
:10FE100010E061E0C8018C5D9D4F0E9470FEF8010A
:10FE2000E25EFD4F8681880E93948881891578F76C
:10FE300081E0BFEF8B1619F08F2D01C08F2D882325
:10FE400009F47AC080911E0290911F028033E3E58D
:10FE50009E0721F08533F3E59F0739F460E072E0F7
:10FE600084E090E00E948DFE6ECF87539345039708
:10FE700080F40E9402FD0E94E7FD60E072E084E0F1
:10FE800090E00E948DFE0E941EFED501ED91FC9136
:10FE90000995F5014081518162817381809104024D
:10FEA00090910502A0910602B091070248175907E8
:10FEB0006A077B0739F460E072E084E090E00E941A
:10FEC0008DFE41CF409304025093050260930602D9
:10FED0007093070288818A019B01080F111D211D63
:10FEE000311DD901C8018130984FA140B10518F4E6
:10FEF0000E947EFC0CC0411551056148710538F423
:10FF000068E072E084E090E00E948DFE1CCFF50175
:10FF100080819181A281B381A158B109811590415D
:10FF2000A105B10510F40E94ABFD60E072E084E031
:10FF300090E00E948DFE07CF68E072E084E090E0E0
:10FF40000E948DFE00CF0E9430FE882339F06CE0C5
:10FF500072E084E090E00E948DFE08950E941EFEF3
:08FF6000E0E0F0E009950895CE
:10FF68004D5A9AB4FFFFFFFF2D595AB269D3D226D2
:08FF7800E8FDF6FDFFFD0BFEA4
:040000031000F800F1
:00000001FF
