:020000023000CC
:10F000000D949AF80D94BCF80D94BCF80D94BCF8CE
:10F010000D94BCF80D94BCF80D94BCF80D94BCF89C
:10F020000D94BCF80D94BCF80D94BCF80D94BCF88C
:10F030000D94BCF80D94BCF80D94BCF80D94BCF87C
:10F040000D94BCF80D94BCF80D94BCF80D94BCF86C
:10F050000D94BCF80D94BCF80D94BCF80D94BCF85C
:10F060000D94BCF80D94BCF80D94BCF80D94BCF84C
:10F070000D94BCF80D94BCF80D94BCF80D94BCF83C
:10F080000D94BCF80D94BCF80D94BCF80D94BCF82C
:10F090000D94BCF80D94BCF80D94BCF80D94BCF81C
:10F0A0000D94BCF80D94BCF80D94BCF80D94BCF80C
:10F0B0000D94BCF80D94BCF80D94BCF80D94BCF8FC
:10F0C0000D94BCF80D94BCF80D94BCF80D94BCF8EC
:10F0D0000D94BCF80D94BCF80D94BCF80D94BCF8DC
:10F0E0000D94BCF80D94BCF80D94BCF80D94BCF8CC
:10F0F0000D94BCF80D94BCF80D94BCF80D94BCF8BC
:10F100000D94BCF80D94BCF80D94BCF80D94BCF8AB
:10F110000D94BCF80D94BCF80D94BCF80D94BCF89B
:10F120000D94BCF80D94BCF80D94BCF80D94BCF88B
:10F130000D94BCF811241FBECFEFD1E8DEBFCDBFC8
:10F1400001E00CBF12E0A0E0B2E0EAEBF8EF03E070
:10F150000BBF02C007900D92A831B107D9F71BBEB3
:10F1600012E0A8E1B2E001C01D92AA3AB107E1F7AE
:10F170000F9424FB0D945BFC0D9400F880E090E06C
:10F180008093B2005091B6005B71E1F70196509107
:10F19000B2005456DAF30895869586958A958823A9
:10F1A000E9F708953BB740E10D94E7F83BB70B0151
:10F1B00044270D94E7F83BB78BBFCB0142E00D9499
:10F1C000E7F83BB78BBFCB0144E00D94E7F8FC01B7
:10F1D000416040935700E89511243BBF08959BB7C9
:10F1E0008BBFFB0186919BBF0895CF938091250231
:10F1F00090912602A0912702B0912802A070B070D1
:10F200008093250290932602A0932702B0932802B0
:10F210002091A902222339F1E9E2F2E0C4E0AC0135
:10F22000BD014F5F5F4F6F4F7F4F4093250250935B
:10F2300026026093270270932802319192BD81BD0E
:10F2400030BDCFBBF99AF999FECF21502093A90286
:10F25000222349F08091250290912602A091270255
:10F26000B0912802DCCFCF9108950895CF92DF921C
:10F27000EF92FF926C01EE24FF24FE2CED2CDC2C8F
:10F28000CC24C701B6010F94DBF807B600FCFDCF14
:10F29000C701B6010F94E1F807B600FCFDCF0F944B
:10F2A000D2F807B600FCFDCFFF90EF90DF90CF9033
:10F2B0000895CF92DF92EF92FF92CF93DF93209148
:10F2C000A902822F90E020FF08C08D5D9D4F3FEF87
:10F2D000FC0136832F5F2093A902222309F457C033
:10F2E00040912502509126026091270270912802D8
:10F2F000C9E2D2E015C0E0931A024F5F5F4F6F4F33
:10F300007F4F40932502509326026093270270930B
:10F3100028028091A90281508093A9028823B9F123
:10F32000C52ED62EE72EFF24809118029091190247
:10F330008C159D0571F00F9436F9D0921902C09288
:10F340001802409125025091260260912702709187
:10F3500028029A013070E991CA018170907000977B
:10F3600051F2E0931B0260911A0270911B02C901D5
:10F3700001970F94D6F807B600FCFDCF4091250207
:10F38000509126026091270270912802B6CFDF913A
:10F39000CF91FF90EF90DF90CF9008958091180269
:10F3A000909119020F9436F908956F927F928F927F
:10F3B0009F92AF92BF92CF92DF92EF92FF920F9304
:10F3C0001F93CF93DF938091B60080628093B60045
:10F3D00081E08093B100C8E8D3E188EC0F94CCF8C9
:10F3E0002197D9F78091660080931C02C0E8D0E095
:10F3F00001E911E081E9C82E81E0D82EE12CF12C41
:10F4000091E9A92E91E0B92E1EC0A80160E070E03C
:10F41000C901A0E0B0E081599140A040B040481738
:10F4200059076A077B071CF4D23009F44AC080915F
:10F4300066008150809366000000890101591140E7
:10F44000D1E0C15051F10F94BEF89C0181E0223906
:10F450003807D8F681E021393807F9F0A80160E0D3
:10F4600070E0C901A0E0B0E036014701681A790AEE
:10F470008A0A9B0A461557056805790514F4D130A8
:10F4800039F1809166008F5F8093660000008501EE
:10F49000021B130BD2E0C150B1F61092B10087B33A
:10F4A000876087BBDF91CF911F910F91FF90EF9005
:10F4B000DF90CF90BF90AF909F908F907F906F9094
:10F4C0000895809166008150809366000000E5CF2A
:10F4D000809166008F5F809366000000DECF809190
:10F4E0001C02809366000895E0911D02F0E02081E7
:10F4F00027FD02C080E008952681FC01208381E081
:10F500000895CF93DF93DB01A895009779F0E09100
:10F510001D02F0E0EF0126962D912883208126FF21
:10F52000FDCF2081206420830197B1F7DF91CF9137
:10F53000089588EC80931D028BE08093CC0082E0DC
:10F540008093C80086E08093CA0088E18093C90058
:10F550000895E0911D02F0E014821082128211825F
:10F560000895E0911E02F0E0EE0FFF1FEE0FFF1F67
:10F57000EE0FFF1FE050FE4F0280F381E02D199542
:10F580000F946FFA08951F93CF93DF9300D00F92DB
:10F59000CDB7DEB712E014BD84EB87BD0F9499FAA6
:10F5A00016BC15BB85E085BDA9991CC0CE0104968B
:10F5B0000F9474FA8823C1F349815A816B817C814D
:10F5C000423B95EA590795E669079BE4790769F09C
:10F5D000452F562F672F772749835A836B837C8368
:10F5E000A99BE4CF0F94A9FA80E010921E0215BCEB
:10F5F00014BC17BC16BC15BA0F900F900F900F904B
:10F60000DF91CF911F9108951F93CF93DF93EC016A
:10F61000162FE0911E02F0E0EE0FFF1FEE0FFF1F0E
:10F62000EE0FFF1FE050FE4F0480F581E02DCE016C
:10F630001995882311F4112361F7DF91CF911F9160
:10F6400008950F9481FA08950F94D5F90F944BFC07
:10F650000F942DFB81E090E00895CF93DF930F92FC
:10F660000F92CDB7DEB733E2C32E32E0D32E83E262
:10F6700092E061E00F9404FB809123028335B9F797
:10F6800010922302F601818383E292E061E00F94FD
:10F6900004FB8091230290912402F3E583339F07BA
:10F6A00009F467C023E58433920708F054C0E3E50A
:10F6B00080339E0708F448C0F3E582339F0708F0C3
:10F6C0005DC003E810E022E0E22ECE01029661E088
:10F6D0000F9404FBFA808F2D90E008171907A4F10E
:10F6E0008F2D81508E198093A902BE2CAA24BA9422
:10F6F0000B2D10E00B5D1D4FC80161E00F9404FB62
:10F70000F8018081A80EBB2091F7FA0C8A81815004
:10F710008E198A83882379F009E212E0C80161E03A
:10F720000F9404FBF80181918F01F80E8A818150BA
:10F730008A83882399F7CE01019661E00F9404FB38
:10F7400089818F0D8F3FF9F084E090E060E172E0F5
:10F750000F9421FB8CCF23E58733920751F0E3E52B
:10F7600088339E0708F06CC0F3E585339F0761F787
:10F77000A8CF05E810E094E0E92EA7CF04E810E058
:10F7800083E0E82EA2CF809123029091240223E50A
:10F790008033920709F44DC0F3E585339F0709F4E0
:10F7A00048C0875393458330910508F454C0809135
:10F7B000250290912602A0912702B0912802409143
:10F7C0000C0250910D0260910E0270910F0284178D
:10F7D0009507A607B70769F180930C0290930D0275
:10F7E000A0930E02B0930F022091A902AC01BD01BB
:10F7F000420F511D611D711D403020EF520723E063
:10F80000620720E07207C8F18030E0E09E07E1E87F
:10F81000AE07E0E0BE0708F497CF80509040A148C3
:10F82000B0408030F0E19F07F0E0AF07F0E0BF07A5
:10F8300078F184E090E068E072E00F9421FB17CF4C
:10F8400023E58833920709F499CFE3E589339E07CE
:10F8500009F07ACF36CF0F94CEF90F9435F984E0C2
:10F8600090E068E072E00F9421FB0F94B1FAE09110
:10F870002502F091260219959ACF0F9459F980919B
:10F88000250290912602A0912702B0912802C5CFAF
:10F890000F94F5F8CECF0F94C3FA882329F40F9470
:10F8A000B1FA0E940000089584E090E064E172E003
:0AF8B0000F9421FB0895F894FFCF98
:10F8BA0099FAA9FA74FA81FA4D5A9AB4FFFFFFFF2E
:08F8CA002D595AB269D3D22670
:040000033000F000D9
:00000001FF
