:020000023000CC
:10F0000099C00000B6C00000B4C00000B2C000004B
:10F01000B0C00000AEC00000ACC00000AAC000003C
:10F02000A8C00000A6C00000A4C00000A2C000004C
:10F03000A0C000009EC000009CC000009AC000005C
:10F0400098C0000096C0000094C0000092C000006C
:10F0500090C000008EC000008CC000008AC000007C
:10F0600088C0000086C0000084C0000082C000008C
:10F0700080C000007EC000007CC000007AC000009C
:10F0800078C0000076C0000074C0000072C00000AC
:10F0900070C000006EC000006CC000006AC00000BC
:10F0A00068C0000066C0000064C0000062C00000CC
:10F0B00060C000005EC000005CC000005AC00000DC
:10F0C00058C0000056C0000054C0000052C00000EC
:10F0D00050C000004EC000004CC000004AC00000FC
:10F0E00048C0000046C0000044C0000042C000000C
:10F0F00040C000003EC000003CC000003AC000001C
:10F1000038C0000036C0000034C0000032C000002B
:10F1100030C000002EC000002CC000002AC000003B
:10F1200028C0000026C0000024C0000022C000004B
:10F1300020C0000011241FBECFEFD1E8DEBFCDBF3D
:10F1400001E00CBF12E0A0E0B2E0E0E6F8EF03E07F
:10F150000BBF02C007900D92A831B107D9F722E08A
:10F16000A8E1B2E001C01D92A93AB207E1F75CD272
:10F1700075C346CF3BB740E10EC03BB70B014427F8
:10F180000AC03BB78BBFCB0142E005C03BB78BBF8A
:10F19000CB0144E000C0FC01416040935700E8957A
:10F1A00011243BBF08959BB78BBFFB0186919BBF8A
:10F1B000089580E090E08093B2005091B6005B71BA
:10F1C000E1F701965091B2005456DAF3089586950E
:10F1D00086958A958823E9F70895CF92DF92EF927A
:10F1E000FF926C01E12CF12CFE2CED2CDC2CCC24BC
:10F1F000C701B601C6DF07B600FCFDCFC701B601E7
:10F20000C5DF07B600FCFDCFB5DF07B600FCFDCFBC
:10F21000FF90EF90DF90CF9008958F929F92BF92D2
:10F22000CF92DF92EF92FF920F931F93CF93DF93D2
:10F230008091A80280FF09C0E82FF0E0EE5DFD4F4D
:10F240009FEF96838F5F8093A8028091A802882306
:10F2500009F459C0B12CC4E2D2E00F2EFAE1EF2E2E
:10F26000F2E0FF2EF02D0F2EFBE1CF2EF2E0DF2E8D
:10F27000F02D08EA12E088819981AA81BB81892F4B
:10F280009A2FAB2FBB274C01809118029091190245
:10F290008815990529F0A1DF909219028092180231
:10F2A00088819981AA81BB81EB2DF0E0EE5DFD4F55
:10F2B0002681AC01BD014170552766277727452B74
:10F2C00079F0F601208360911A0270911B02992750
:10F2D000AA27BB27019751DF07B600FCFDCF02C06C
:10F2E000F701208388819981AA81BB810196A11DA4
:10F2F000B11D88839983AA83BB83B394F80180816D
:10F30000B81608F4B8CFDF91CF911F910F91FF90FD
:10F31000EF90DF90CF90BF909F908F900895809155
:10F3200018029091190259CF2F923F924F925F92FB
:10F330006F927F928F929F92AF92BF92CF92DF9205
:10F34000EF92FF920F931F93CF93DF9381E08CBFD7
:10F35000E6EBF0E09081906290838093B100C8E882
:10F36000D3E188EC34DF2197E1F780916600809348
:10F370001C026894992497F8812C0F2EF1E9AF2E86
:10F38000BB24B394F02DC6E6D0E0662463940F2E20
:10F39000F1E9CF2EDD24D394E12CF12CF02D01E9FD
:10F3A00011E06894772471F804DF823921E0920734
:10F3B000E0F028812150288300001501412C512CB8
:10F3C000AC0160E070E041595140610971092416B7
:10F3D0003506460657061CF422E0821649F15C0108
:10F3E00021E9A21A21E0B20A862C813921E0920794
:10F3F000C8F428812F5F288300001501412C512C6F
:10F40000B701A601481B590B61097109241635067D
:10F41000460657061CF421E0821651F05801A81A3E
:10F42000B90A872C8139914019F09A9409F0BCCF20
:10F430001092B10087B3876087BBDF91CF911F9196
:10F440000F91FF90EF90DF90CF90BF90AF909F9083
:10F450008F907F906F905F904F903F902F90089586
:10F4600080911C028093660008950F931F93CF93A1
:10F47000DF93E4E2F2E080819181A281B381AA2747
:10F48000BB2780839183A283B3838091A8028823C2
:10F4900019F128E232E0EF0104E0E8EAF2E0D901F4
:10F4A0001D919D0188819981AA81BB81AC01BD011B
:10F4B0004F5F5F4F6F4F7F4F488359836A837B83D2
:10F4C00092BD81BD10BD0FBBF99AF999FECF808125
:10F4D000815080838111E3CFDF91CF911F910F91F4
:10F4E00008950895569A579A5E985F98759A749AF7
:10F4F0006D9A6C9A6E9876986F98779814B808956C
:10F5000056985E9857985F986D9875986C9874980F
:10F510000895679908C07598000023B1FC01208305
:10F52000759A81E0089580E00895FB01A8952FEF7A
:10F5300024B9009759F0860F971F6699FECF219145
:10F5400025B97498749AE817F907B9F714B80895AB
:10F55000E0911D02F0E0EE0FFF1FEE0FFF1FEE0F18
:10F56000FF1FE05FFD4F0280F381E02D199578CFFA
:10F570001F93CF93DF9300D01F92CDB7DEB712E079
:10F5800014BD84EB87BDAEDF16BC15BB85E085BD21
:10F5900019C0CE010496BDDF8823A1F049815A81AC
:10F5A0006B817C81423B95EA590795E669079BE4AC
:10F5B000790761F0452F562F672F772749835A83A4
:10F5C0006B837C83A99BE5CF9BDF80E010921D02BB
:10F5D00015BC14BC17BC16BC15BA0F900F900F9039
:10F5E0000F90DF91CF911F9108951F93CF93DF93D9
:10F5F000EC01162FE0911D02F0E0EE0FFF1FEE0F61
:10F60000FF1FEE0FFF1FE05FFD4F0480F581E02D2F
:10F61000CE011995811102C01111ECCFDF91CF916C
:10F620001F91089582CF08957FDE08D103D081E035
:10F6300090E008950F2EF4E2AF2EF2E0BF2EF02DF1
:10F64000C8EAD2E0F12C6894CC24C2F80F2EF3E083
:10F65000DF2EF02D6894EE24E1F861E082E292E082
:10F66000C4DF809122028335C1F702E212E0D801A3
:10F670001C9211968C9361E0C801B7DFF80180817C
:10F6800091818333F3E59F07F1F048F4803313E56C
:10F69000910708F458C08233934598F016C0873319
:10F6A00033E5930781F028F48533934509F04BC087
:10F6B00008C08833E3E59E0741F08933934509F09C
:10F6C00042C09E2C03C09C2C01C09D2C61E0CE0149
:10F6D0008CDF8880282D30E0892D90E08F579F4F58
:10F6E000821793070CF4A4C0882D81508919888350
:10F6F000992081F07F2C9A94892D90E08C010C5DEB
:10F700001D4F61E0C80171DFD8018C91780E911016
:10F71000F2CF01C07F2C870C9F2C092D10E061E0F7
:10F72000C801885D9D4F61DFF801EE5DFD4F868168
:10F73000880E93948881891580F781E0BFEF8B163E
:10F7400019F08F2D01C08F2D882309F471C080918D
:10F750002202909123028033E3E59E0721F0853356
:10F76000F3E59F0731F460E072E084E090E05ADF57
:10F7700074CF87539345039768F4D1DDB2DE60E020
:10F7800072E084E090E04EDFE3DED501ED91FC9184
:10F790001CBE1995F5014081518162817381809170
:10F7A000040290910502A0910602B0910702481749
:10F7B00059076A077B0731F460E072E084E090E06B
:10F7C00031DF4BCF40930402509305026093060251
:10F7D0007093070288818A019B01080F111D211D6A
:10F7E000311DD901C8018130984FA340B10510F4F3
:10F7F00014DD0BC0411551056148710530F468E016
:10F8000072E084E090E00EDF28CFF50180819181E5
:10F81000A281B381A158B10981159041A105B1051B
:10F8200008F423DE60E072E084E090E0FBDE15CFB8
:10F8300068E072E084E090E0F5DE0FCF99DE882387
:10F8400029F06CE072E084E090E0ECCE81DEE091A3
:10F850002402F09125021CBE19950895F894FFCF5B
:10F860004D5A9AB4FFFFFFFF2D595AB269D3D226E1
:08F8700072FA80FA89FA95FA98
:040000033000F000D9
:00000001FF
